{
  "_format": "hh-sol-artifact-1",
  "contractName": "Presale",
  "sourceName": "contracts/presale/Presale.sol",
  "abi": [
    {
      "inputs": [],
      "stateMutability": "nonpayable",
      "type": "constructor"
    },
    {
      "anonymous": false,
      "inputs": [
        {
          "indexed": true,
          "internalType": "address",
          "name": "previousOwner",
          "type": "address"
        },
        {
          "indexed": true,
          "internalType": "address",
          "name": "newOwner",
          "type": "address"
        }
      ],
      "name": "OwnershipTransferred",
      "type": "event"
    },
    {
      "inputs": [],
      "name": "DAO",
      "outputs": [
        {
          "internalType": "address",
          "name": "",
          "type": "address"
        }
      ],
      "stateMutability": "view",
      "type": "function"
    },
    {
      "inputs": [
        {
          "internalType": "contract IPancakeswapRouter",
          "name": "router",
          "type": "address"
        },
        {
          "internalType": "uint256",
          "name": "begoPrice",
          "type": "uint256"
        }
      ],
      "name": "addLiquidity",
      "outputs": [],
      "stateMutability": "nonpayable",
      "type": "function"
    },
    {
      "inputs": [],
      "name": "addLiquidityTime",
      "outputs": [
        {
          "internalType": "uint256",
          "name": "",
          "type": "uint256"
        }
      ],
      "stateMutability": "view",
      "type": "function"
    },
    {
      "inputs": [],
      "name": "begoTOKEN",
      "outputs": [
        {
          "internalType": "address",
          "name": "",
          "type": "address"
        }
      ],
      "stateMutability": "view",
      "type": "function"
    },
    {
      "inputs": [
        {
          "internalType": "address",
          "name": "",
          "type": "address"
        }
      ],
      "name": "boughtTokens",
      "outputs": [
        {
          "internalType": "bool",
          "name": "",
          "type": "bool"
        }
      ],
      "stateMutability": "view",
      "type": "function"
    },
    {
      "inputs": [
        {
          "internalType": "uint256",
          "name": "paymentAmount_",
          "type": "uint256"
        }
      ],
      "name": "calculateSaleQuote",
      "outputs": [
        {
          "internalType": "uint256",
          "name": "",
          "type": "uint256"
        }
      ],
      "stateMutability": "view",
      "type": "function"
    },
    {
      "inputs": [],
      "name": "claim",
      "outputs": [
        {
          "internalType": "bool",
          "name": "",
          "type": "bool"
        }
      ],
      "stateMutability": "nonpayable",
      "type": "function"
    },
    {
      "inputs": [],
      "name": "claimTime",
      "outputs": [
        {
          "internalType": "uint256",
          "name": "",
          "type": "uint256"
        }
      ],
      "stateMutability": "view",
      "type": "function"
    },
    {
      "inputs": [],
      "name": "dai",
      "outputs": [
        {
          "internalType": "address",
          "name": "",
          "type": "address"
        }
      ],
      "stateMutability": "view",
      "type": "function"
    },
    {
      "inputs": [
        {
          "internalType": "address",
          "name": "_begoTOKEN",
          "type": "address"
        },
        {
          "internalType": "address",
          "name": "_pbegoTOKEN",
          "type": "address"
        },
        {
          "internalType": "address",
          "name": "_dai",
          "type": "address"
        },
        {
          "internalType": "uint256",
          "name": "_minAmount",
          "type": "uint256"
        },
        {
          "internalType": "uint256",
          "name": "_maxAmount",
          "type": "uint256"
        },
        {
          "internalType": "uint256",
          "name": "_totalAmont",
          "type": "uint256"
        },
        {
          "internalType": "address",
          "name": "_DAO",
          "type": "address"
        }
      ],
      "name": "initialize",
      "outputs": [
        {
          "internalType": "bool",
          "name": "",
          "type": "bool"
        }
      ],
      "stateMutability": "nonpayable",
      "type": "function"
    },
    {
      "inputs": [
        {
          "internalType": "address",
          "name": "_user",
          "type": "address"
        }
      ],
      "name": "isWhitelisted",
      "outputs": [
        {
          "internalType": "enum Presale.LEVELS",
          "name": "",
          "type": "uint8"
        }
      ],
      "stateMutability": "view",
      "type": "function"
    },
    {
      "inputs": [],
      "name": "maxAmount",
      "outputs": [
        {
          "internalType": "uint256",
          "name": "",
          "type": "uint256"
        }
      ],
      "stateMutability": "view",
      "type": "function"
    },
    {
      "inputs": [
        {
          "internalType": "enum Presale.LEVELS",
          "name": "",
          "type": "uint8"
        }
      ],
      "name": "maxPurchaseAmount",
      "outputs": [
        {
          "internalType": "uint256",
          "name": "",
          "type": "uint256"
        }
      ],
      "stateMutability": "view",
      "type": "function"
    },
    {
      "inputs": [
        {
          "internalType": "enum Presale.LEVELS",
          "name": "",
          "type": "uint8"
        }
      ],
      "name": "membersForLevels",
      "outputs": [
        {
          "internalType": "uint8",
          "name": "",
          "type": "uint8"
        }
      ],
      "stateMutability": "view",
      "type": "function"
    },
    {
      "inputs": [],
      "name": "minAmount",
      "outputs": [
        {
          "internalType": "uint256",
          "name": "",
          "type": "uint256"
        }
      ],
      "stateMutability": "view",
      "type": "function"
    },
    {
      "inputs": [
        {
          "internalType": "enum Presale.LEVELS",
          "name": "",
          "type": "uint8"
        }
      ],
      "name": "numberOfMembers",
      "outputs": [
        {
          "internalType": "uint8",
          "name": "",
          "type": "uint8"
        }
      ],
      "stateMutability": "view",
      "type": "function"
    },
    {
      "inputs": [],
      "name": "openIdo",
      "outputs": [
        {
          "internalType": "bool",
          "name": "",
          "type": "bool"
        }
      ],
      "stateMutability": "view",
      "type": "function"
    },
    {
      "inputs": [],
      "name": "owner",
      "outputs": [
        {
          "internalType": "address",
          "name": "",
          "type": "address"
        }
      ],
      "stateMutability": "view",
      "type": "function"
    },
    {
      "inputs": [],
      "name": "pbegoTOKEN",
      "outputs": [
        {
          "internalType": "address",
          "name": "",
          "type": "address"
        }
      ],
      "stateMutability": "view",
      "type": "function"
    },
    {
      "inputs": [],
      "name": "privateSalePeriod",
      "outputs": [
        {
          "internalType": "uint256",
          "name": "",
          "type": "uint256"
        }
      ],
      "stateMutability": "view",
      "type": "function"
    },
    {
      "inputs": [],
      "name": "publicSalePeriod",
      "outputs": [
        {
          "internalType": "uint256",
          "name": "",
          "type": "uint256"
        }
      ],
      "stateMutability": "view",
      "type": "function"
    },
    {
      "inputs": [
        {
          "internalType": "uint256",
          "name": "_val",
          "type": "uint256"
        }
      ],
      "name": "purchase",
      "outputs": [
        {
          "internalType": "bool",
          "name": "",
          "type": "bool"
        }
      ],
      "stateMutability": "nonpayable",
      "type": "function"
    },
    {
      "inputs": [],
      "name": "renounceOwnership",
      "outputs": [],
      "stateMutability": "nonpayable",
      "type": "function"
    },
    {
      "inputs": [
        {
          "internalType": "enum Presale.LEVELS",
          "name": "",
          "type": "uint8"
        }
      ],
      "name": "salePrice",
      "outputs": [
        {
          "internalType": "uint256",
          "name": "",
          "type": "uint256"
        }
      ],
      "stateMutability": "view",
      "type": "function"
    },
    {
      "inputs": [],
      "name": "saleStartTime",
      "outputs": [
        {
          "internalType": "uint256",
          "name": "",
          "type": "uint256"
        }
      ],
      "stateMutability": "view",
      "type": "function"
    },
    {
      "inputs": [],
      "name": "sellAmount",
      "outputs": [
        {
          "internalType": "uint256",
          "name": "",
          "type": "uint256"
        }
      ],
      "stateMutability": "view",
      "type": "function"
    },
    {
      "inputs": [
        {
          "internalType": "uint256",
          "name": "_minAmount",
          "type": "uint256"
        },
        {
          "internalType": "uint256",
          "name": "_maxAmount",
          "type": "uint256"
        }
      ],
      "name": "setAllocation",
      "outputs": [],
      "stateMutability": "nonpayable",
      "type": "function"
    },
    {
      "inputs": [
        {
          "internalType": "enum Presale.LEVELS",
          "name": "level",
          "type": "uint8"
        },
        {
          "internalType": "uint256",
          "name": "_maxAmount",
          "type": "uint256"
        }
      ],
      "name": "setMaxPurchase",
      "outputs": [],
      "stateMutability": "nonpayable",
      "type": "function"
    },
    {
      "inputs": [
        {
          "internalType": "enum Presale.LEVELS",
          "name": "level",
          "type": "uint8"
        },
        {
          "internalType": "uint8",
          "name": "_number",
          "type": "uint8"
        }
      ],
      "name": "setNumberOfMembers",
      "outputs": [],
      "stateMutability": "nonpayable",
      "type": "function"
    },
    {
      "inputs": [
        {
          "internalType": "bool",
          "name": "_open",
          "type": "bool"
        }
      ],
      "name": "setOpen",
      "outputs": [],
      "stateMutability": "nonpayable",
      "type": "function"
    },
    {
      "inputs": [
        {
          "internalType": "enum Presale.LEVELS",
          "name": "level",
          "type": "uint8"
        },
        {
          "internalType": "uint256",
          "name": "_salePrice",
          "type": "uint256"
        }
      ],
      "name": "setSalePrice",
      "outputs": [],
      "stateMutability": "nonpayable",
      "type": "function"
    },
    {
      "inputs": [],
      "name": "totalAmont",
      "outputs": [
        {
          "internalType": "uint256",
          "name": "",
          "type": "uint256"
        }
      ],
      "stateMutability": "view",
      "type": "function"
    },
    {
      "inputs": [
        {
          "internalType": "address",
          "name": "newOwner_",
          "type": "address"
        }
      ],
      "name": "transferOwnership",
      "outputs": [],
      "stateMutability": "nonpayable",
      "type": "function"
    },
    {
      "inputs": [
        {
          "internalType": "address[]",
          "name": "addresses",
          "type": "address[]"
        }
      ],
      "name": "unwhitelistUsers",
      "outputs": [],
      "stateMutability": "nonpayable",
      "type": "function"
    },
    {
      "inputs": [
        {
          "internalType": "address",
          "name": "",
          "type": "address"
        }
      ],
      "name": "whiteListed",
      "outputs": [
        {
          "internalType": "enum Presale.LEVELS",
          "name": "",
          "type": "uint8"
        }
      ],
      "stateMutability": "view",
      "type": "function"
    },
    {
      "inputs": [
        {
          "internalType": "address[]",
          "name": "addresses",
          "type": "address[]"
        },
        {
          "internalType": "enum Presale.LEVELS",
          "name": "level",
          "type": "uint8"
        }
      ],
      "name": "whitelistUsers",
      "outputs": [],
      "stateMutability": "nonpayable",
      "type": "function"
    }
  ],
  "bytecode": "0x60806040526009805460ff1916905562015180600b556202a300600c55610e10600d5534801561002e57600080fd5b50600080546001600160a01b03191633178082556040516001600160a01b039190911691907f8be0079c531659141344cd1fd0a4f28419497f9722a3daafe3b4186f6b6457e0908290a36121db806100876000396000f3fe608060405234801561001057600080fd5b506004361061021c5760003560e01c80636fdca5e011610125578063b91067de116100ad578063e47c180a1161007c578063e47c180a1461067c578063efef39a114610684578063f2fde38b146106a1578063f4b9fa75146106c7578063fa0fca84146106cf5761021c565b8063b91067de146105a3578063b95e9da214610646578063df74afca1461064e578063e1bf8f58146106565761021c565b80638da5cb5b116100f45780638da5cb5b146104a157806398fabd3a146104c55780639b2cb5d8146104cd5780639d95c930146104d5578063aabb75d0146104fb5761021c565b80636fdca5e014610402578063715018a61461042157806383bad1af146104295780638754bbc61461044f5761021c565b80633f407b84116101a85780634e71d92d116101775780634e71d92d146103965780635243ada61461039e57806356688700146103a65780635ec7ea34146103d25780635f48f393146103fa5761021c565b80633f407b84146103415780634441af98146103495780634af1cf4e1461036e5780634de97bf5146103765761021c565b806327b3bf11116101ef57806327b3bf111461027c5780632e32a7861461028457806338af39e8146102ba57806339d70570146102da5780633af32abf146102fa5761021c565b80631cbaee2d146102215780631cfa43eb1461023b5780631eed443c146102575780632092c12b1461025f575b600080fd5b6102296106f5565b60408051918252519081900360200190f35b6102436106fb565b604080519115158252519081900360200190f35b610229610704565b6102296004803603602081101561027557600080fd5b503561070a565b61022961071b565b6102a46004803603602081101561029a57600080fd5b503560ff16610721565b6040805160ff9092168252519081900360200190f35b610229600480360360208110156102d057600080fd5b503560ff16610736565b6102a4600480360360208110156102f057600080fd5b503560ff16610748565b6103206004803603602081101561031057600080fd5b50356001600160a01b031661075d565b6040518082600681111561033057fe5b815260200191505060405180910390f35b61022961077b565b61036c6004803603604081101561035f57600080fd5b5080359060200135610781565b005b6102296107d9565b6102296004803603602081101561038c57600080fd5b503560ff166107df565b6102436107f1565b6102296109c5565b61036c600480360360408110156103bc57600080fd5b506001600160a01b0381351690602001356109cb565b61036c600480360360408110156103e857600080fd5b5060ff81358116916020013516610ec2565b610229610f55565b61036c6004803603602081101561041857600080fd5b50351515610f5b565b61036c610fbf565b6102436004803603602081101561043f57600080fd5b50356001600160a01b0316611056565b610243600480360360e081101561046557600080fd5b506001600160a01b0381358116916020810135821691604082013581169160608101359160808201359160a08101359160c0909101351661106b565b6104a9611117565b604080516001600160a01b039092168252519081900360200190f35b6104a9611126565b610229611135565b61036c600480360360408110156104eb57600080fd5b5060ff813516906020013561113b565b61036c6004803603604081101561051157600080fd5b81019060208101813564010000000081111561052c57600080fd5b82018360208201111561053e57600080fd5b8035906020019184602083028401116401000000008311171561056057600080fd5b9190808060200260200160405190810160405280939291908181526020018383602002808284376000920191909152509295505050903560ff1691506111b99050565b61036c600480360360208110156105b957600080fd5b8101906020810181356401000000008111156105d457600080fd5b8201836020820111156105e657600080fd5b8035906020019184602083028401116401000000008311171561060857600080fd5b9190808060200260200160405190810160405280939291908181526020018383602002808284376000920191909152509295506113df945050505050565b6104a96115bf565b6102296115ce565b61036c6004803603604081101561066c57600080fd5b5060ff81351690602001356115d4565b6104a9611632565b6102436004803603602081101561069a57600080fd5b5035611641565b61036c600480360360208110156106b757600080fd5b50356001600160a01b0316611a9d565b6104a9611b8a565b610320600480360360208110156106e557600080fd5b50356001600160a01b0316611b99565b600a5481565b60095460ff1681565b600c5481565b600061071582611bae565b92915050565b600d5481565b60116020526000908152604090205460ff1681565b60106020526000908152604090205481565b60136020526000908152604090205460ff1681565b6001600160a01b03166000908152600f602052604090205460ff1690565b60085481565b6000546001600160a01b031633146107ce576040805162461bcd60e51b81526020600482018190526024820152600080516020612114833981519152604482015290519081900360640190fd5b600591909155600655565b60145481565b60126020526000908152604090205481565b60004261080b600d54601454611c0590919063ffffffff16565b1061085d576040805162461bcd60e51b815260206004820152601d60248201527f43616e277420636c61696d206e6f772e20706c6561736520776169742e000000604482015290519081900360640190fd5b600354604080516370a0823160e01b815233600482015290516000926001600160a01b0316916370a08231916024808301926020929190829003018186803b1580156108a857600080fd5b505afa1580156108bc573d6000803e3d6000fd5b505050506040513d60208110156108d257600080fd5b5051905080610928576040805162461bcd60e51b815260206004820152601d60248201527f43616e277420636c61696d20776974686f757420616e7920704265676f000000604482015290519081900360640190fd5b600354610940906001600160a01b0316333084611c66565b60035460408051630852cd8d60e31b81526004810184905290516001600160a01b03909216916342966c689160248082019260009290919082900301818387803b15801561098d57600080fd5b505af11580156109a1573d6000803e3d6000fd5b50506002546109bd92506001600160a01b031690503383611cc6565b600191505090565b60075481565b6000546001600160a01b03163314610a18576040805162461bcd60e51b81526020600482018190526024820152600080516020612114833981519152604482015290519081900360640190fd5b60048054604080516370a0823160e01b81523093810193909352516000926001600160a01b03909216916370a08231916024808301926020929190829003018186803b158015610a6757600080fd5b505afa158015610a7b573d6000803e3d6000fd5b505050506040513d6020811015610a9157600080fd5b5051600254604080516370a0823160e01b815230600482015290519293506000926001600160a01b03909216916370a0823191602480820192602092909190829003018186803b158015610ae457600080fd5b505afa158015610af8573d6000803e3d6000fd5b505050506040513d6020811015610b0e57600080fd5b505190506000610b1f836002611d1d565b90506000610b2d8286611d5f565b905082811115610b84576040805162461bcd60e51b815260206004820152601960248201527f496e73756666696369656e74206265676f20616d6f756e742e00000000000000604482015290519081900360640190fd5b600480546040805163095ea7b360e01b81526001600160a01b038a811694820194909452602481018690529051929091169163095ea7b3916044808201926020929091908290030181600087803b158015610bde57600080fd5b505af1158015610bf2573d6000803e3d6000fd5b505050506040513d6020811015610c0857600080fd5b50506002546040805163095ea7b360e01b81526001600160a01b038981166004830152602482018590529151919092169163095ea7b39160448083019260209291908290030181600087803b158015610c6057600080fd5b505af1158015610c74573d6000803e3d6000fd5b505050506040513d6020811015610c8a57600080fd5b5050600480546002546001546040805162e8e33760e81b81526001600160a01b03948516958101959095529183166024850152604484018690526064840185905260006084850181905260a4850181905290831660c4850152680605f9f6dd18bc71c760e485015290519189169263e8e33700926101048083019360609383900390910190829087803b158015610d2057600080fd5b505af1158015610d34573d6000803e3d6000fd5b505050506040513d6060811015610d4a57600080fd5b505060015460048054604080516370a0823160e01b8152309381019390935251610de1936001600160a01b03908116939216916370a08231916024808301926020929190829003018186803b158015610da257600080fd5b505afa158015610db6573d6000803e3d6000fd5b505050506040513d6020811015610dcc57600080fd5b50516004546001600160a01b03169190611cc6565b600254604080516370a0823160e01b815230600482015290516001600160a01b03909216916342966c689183916370a0823191602480820192602092909190829003018186803b158015610e3457600080fd5b505afa158015610e48573d6000803e3d6000fd5b505050506040513d6020811015610e5e57600080fd5b5051604080516001600160e01b031960e085901b168152600481019290925251602480830192600092919082900301818387803b158015610e9e57600080fd5b505af1158015610eb2573d6000803e3d6000fd5b5050426014555050505050505050565b6000546001600160a01b03163314610f0f576040805162461bcd60e51b81526020600482018190526024820152600080516020612114833981519152604482015290519081900360640190fd5b8060116000846006811115610f2057fe5b6006811115610f2b57fe5b815260200190815260200160002060006101000a81548160ff021916908360ff1602179055505050565b60065481565b6000546001600160a01b03163314610fa8576040805162461bcd60e51b81526020600482018190526024820152600080516020612114833981519152604482015290519081900360640190fd5b6009805460ff191691151591909117905542600a55565b6000546001600160a01b0316331461100c576040805162461bcd60e51b81526020600482018190526024820152600080516020612114833981519152604482015290519081900360640190fd5b600080546040516001600160a01b03909116907f8be0079c531659141344cd1fd0a4f28419497f9722a3daafe3b4186f6b6457e0908390a3600080546001600160a01b0319169055565b600e6020526000908152604090205460ff1681565b600080546001600160a01b031633146110b9576040805162461bcd60e51b81526020600482018190526024820152600080516020612114833981519152604482015290519081900360640190fd5b50600280546001600160a01b03199081166001600160a01b03998a1617909155600380548216978916979097179096556004805487169588169590951790945560059290925560065560075560018054909216921691909117815590565b6000546001600160a01b031690565b6001546001600160a01b031681565b60055481565b6000546001600160a01b03163314611188576040805162461bcd60e51b81526020600482018190526024820152600080516020612114833981519152604482015290519081900360640190fd5b806010600084600681111561119957fe5b60068111156111a457fe5b81526020810191909152604001600020555050565b6000546001600160a01b03163314611206576040805162461bcd60e51b81526020600482018190526024820152600080516020612114833981519152604482015290519081900360640190fd5b60005b8251811015611327576000600f600085848151811061122457fe5b6020908102919091018101516001600160a01b031682528101919091526040016000205460ff16600681111561125657fe5b141561131f576013600083600681111561126c57fe5b600681111561127757fe5b8152602081019190915260400160009081205460ff16600101906013908460068111156112a057fe5b60068111156112ab57fe5b815260200190815260200160002060006101000a81548160ff021916908360ff16021790555081600f60008584815181106112e257fe5b6020908102919091018101516001600160a01b03168252810191909152604001600020805460ff1916600183600681111561131957fe5b02179055505b600101611209565b506011600082600681111561133857fe5b600681111561134357fe5b8152602081019190915260400160009081205460ff169060139083600681111561136957fe5b600681111561137457fe5b815260208101919091526040016000205460ff1611156113db576040805162461bcd60e51b815260206004820152601a60248201527f4e756d626572206f66206d656d6265727320657863656564732e000000000000604482015290519081900360640190fd5b5050565b6000546001600160a01b0316331461142c576040805162461bcd60e51b81526020600482018190526024820152600080516020612114833981519152604482015290519081900360640190fd5b60005b81518110156113db576000600f600084848151811061144a57fe5b6020908102919091018101516001600160a01b031682528101919091526040016000205460ff16600681111561147c57fe5b146115b757600160136000600f600086868151811061149757fe5b6020908102919091018101516001600160a01b031682528101919091526040016000205460ff1660068111156114c957fe5b60068111156114d457fe5b815260200190815260200160002060009054906101000a900460ff160360136000600f600086868151811061150557fe5b6020908102919091018101516001600160a01b031682528101919091526040016000205460ff16600681111561153757fe5b600681111561154257fe5b815260200190815260200160002060006101000a81548160ff021916908360ff1602179055506000600f600084848151811061157a57fe5b6020908102919091018101516001600160a01b03168252810191909152604001600020805460ff191660018360068111156115b157fe5b02179055505b60010161142f565b6003546001600160a01b031681565b600b5481565b6000546001600160a01b03163314611621576040805162461bcd60e51b81526020600482018190526024820152600080516020612114833981519152604482015290519081900360640190fd5b806012600084600681111561119957fe5b6002546001600160a01b031681565b60095460009060ff161515600114611690576040805162461bcd60e51b815260206004820152600d60248201526c125113c81a5cc818db1bdcd959609a1b604482015290519081900360640190fd5b336000908152600e602052604090205460ff16156116df5760405162461bcd60e51b81526004018080602001828103825260278152602001806120cc6027913960400191505060405180910390fd5b4260006116eb84611bae565b9050600554811015611744576040805162461bcd60e51b815260206004820152601860248201527f42656c6f77206d696e696d756d20616c6c6f636174696f6e0000000000000000604482015290519081900360640190fd5b600654811115611792576040805162461bcd60e51b815260206004820152601460248201527326b7b932903a3430b71030b63637b1b0ba34b7b760611b604482015290519081900360640190fd5b60085461179f9082611c05565b600881905560075410156117e45760405162461bcd60e51b81526004018080602001828103825260238152602001806121836023913960400191505060405180910390fd5b600b54600a546117f391611c05565b8210156118ef57336000908152600f602052604081205460ff16600681111561181857fe5b141561186b576040805162461bcd60e51b815260206004820152601760248201527f596f75277265206e6f742057686974656c69737465642e000000000000000000604482015290519081900360640190fd5b336000908152600f6020526040812054601290829060ff16600681111561188e57fe5b600681111561189957fe5b8152602001908152602001600020549050808211156118e95760405162461bcd60e51b815260040180806020018281038252602581526020018061215e6025913960400191505060405180910390fd5b5061195c565b611912600c5461190c600b54600a54611c0590919063ffffffff16565b90611c05565b821061195c576040805162461bcd60e51b8152602060048201526014602482015273283932b9b0b6329034b9903334b734b9b432b21760611b604482015290519081900360640190fd5b336000818152600e60205260409020805460ff19166001179055600454611991916001600160a01b0391909116903087611c66565b6003546040805163c30f1d6f60e01b81523060048201526024810184905290516001600160a01b039092169163c30f1d6f9160448082019260009290919082900301818387803b1580156119e457600080fd5b505af11580156119f8573d6000803e3d6000fd5b5050600280546001600160a01b03169250639a84d8ab91503090611a1d908590611d6f565b6040518363ffffffff1660e01b815260040180836001600160a01b0316815260200182815260200192505050600060405180830381600087803b158015611a6357600080fd5b505af1158015611a77573d6000803e3d6000fd5b5050600354611a9392506001600160a01b031690503383611cc6565b5060019392505050565b6000546001600160a01b03163314611aea576040805162461bcd60e51b81526020600482018190526024820152600080516020612114833981519152604482015290519081900360640190fd5b6001600160a01b038116611b2f5760405162461bcd60e51b81526004018080602001828103825260268152602001806120a66026913960400191505060405180910390fd5b600080546040516001600160a01b03808516939216917f8be0079c531659141344cd1fd0a4f28419497f9722a3daafe3b4186f6b6457e091a3600080546001600160a01b0319166001600160a01b0392909216919091179055565b6004546001600160a01b031681565b600f6020526000908152604090205460ff1681565b336000908152600f602052604081205461071590601090839060ff166006811115611bd557fe5b6006811115611be057fe5b8152602081019190915260400160002054611bff633b9aca0085611d6f565b90611d1d565b600082820183811015611c5f576040805162461bcd60e51b815260206004820152601b60248201527f536166654d6174683a206164646974696f6e206f766572666c6f770000000000604482015290519081900360640190fd5b9392505050565b604080516001600160a01b0380861660248301528416604482015260648082018490528251808303909101815260849091019091526020810180516001600160e01b03166323b872dd60e01b179052611cc0908590611dc8565b50505050565b604080516001600160a01b038416602482015260448082018490528251808303909101815260649091019091526020810180516001600160e01b031663a9059cbb60e01b179052611d18908490611dc8565b505050565b6000611c5f83836040518060400160405280601a81526020017f536166654d6174683a206469766973696f6e206279207a65726f000000000000815250611e79565b6000611c5f82611bff633b9aca00865b600082611d7e57506000610715565b82820282848281611d8b57fe5b0414611c5f5760405162461bcd60e51b81526004018080602001828103825260218152602001806120f36021913960400191505060405180910390fd5b6060611e1d826040518060400160405280602081526020017f5361666545524332303a206c6f772d6c6576656c2063616c6c206661696c6564815250856001600160a01b0316611f1b9092919063ffffffff16565b805190915015611d1857808060200190516020811015611e3c57600080fd5b5051611d185760405162461bcd60e51b815260040180806020018281038252602a815260200180612134602a913960400191505060405180910390fd5b60008183611f055760405162461bcd60e51b81526004018080602001828103825283818151815260200191508051906020019080838360005b83811015611eca578181015183820152602001611eb2565b50505050905090810190601f168015611ef75780820380516001836020036101000a031916815260200191505b509250505060405180910390fd5b506000838581611f1157fe5b0495945050505050565b6060611f2a8484600085611f32565b949350505050565b6060611f3d8561209f565b611f8e576040805162461bcd60e51b815260206004820152601d60248201527f416464726573733a2063616c6c20746f206e6f6e2d636f6e7472616374000000604482015290519081900360640190fd5b60006060866001600160a01b031685876040518082805190602001908083835b60208310611fcd5780518252601f199092019160209182019101611fae565b6001836020036101000a03801982511681845116808217855250505050505090500191505060006040518083038185875af1925050503d806000811461202f576040519150601f19603f3d011682016040523d82523d6000602084013e612034565b606091505b50915091508115612048579150611f2a9050565b8051156120585780518082602001fd5b60405162461bcd60e51b8152602060048201818152865160248401528651879391928392604401919085019080838360008315611eca578181015183820152602001611eb2565b3b15159056fe4f776e61626c653a206e6577206f776e657220697320746865207a65726f2061646472657373596f7527766520616c72656164792070617274696369706174656420746f207468652049444f2e536166654d6174683a206d756c7469706c69636174696f6e206f766572666c6f774f776e61626c653a2063616c6c6572206973206e6f7420746865206f776e65725361666545524332303a204552433230206f7065726174696f6e20646964206e6f74207375636365656454686520616d6f756e7420656e74657265642065786365656473206d617820616d6f75742e54686520616d6f756e7420656e746572656420657863656564732049444f20476f616ca26469706673582212200785d34ab5428f5fb357182213e42cc9ee3d6cc79adc3a36a933d2cbb9c94e9464736f6c63430007050033",
  "linkReferences": {},
  "deployedLinkReferences": {}
}